:100DEA00383035312052534120456E637279707420
:100DFA00696F6E2F44656372797074696F6E2053E0
:100E0A00797374656D000043686F6F7365206F7046
:100E1A0065726174696F6E3A200D0A20312E204581
:100E2A006E63727970742E200D0A20322E2044656A
:100E3A006372797074200D0A202E456E74657220D3
:100E4A0063686F6963653A2000496E76616C69640C
:100E5A002063686F6963652E20506C656173652035
:100E6A00656E7465722031206F7220322E000D0A71
:100E7A00456E746572207072696D65206E756D625B
:100E8A00657220703A20000D0A7020697320612073
:100E9A0076616C6964207072696D65206E756D6229
:100EAA0065722E004572726F723A20702069732043
:100EBA006E6F742061207072696D65206E756D6247
:100ECA0065722E20506C6561736520747279206199
:100EDA006761696E2E00456E746572207072696D65
:100EEA0065206E756D62657220713A20000D0A7177
:100EFA0020697320612076616C6964207072696D63
:100F0A0065206E756D6265722E000D0A4572726FEC
:100F1A00723A2071206973206E6F7420612070729A
:100F2A00696D65206E756D6265722E20506C656103
:100F3A0073652074727920616761696E2E000D0AEB
:100F4A00456E746572207075626C6963206B657991
:100F5A002076616C756520653A20000D0A65206966
:100F6A007320612076616C6964207075626C6963B4
:100F7A00206B65792E000D0A5075626C6963204BEF
:100F8A0065793A202865203D20256C752C206E2035
:100F9A003D20256C7529000D0A50726976617465C9
:100FAA00204B65793A202864203D20256C752C2039
:100FBA00706869286E29203D20256C7529000D0A64
:100FCA00456E74657220706C61696E746578742000
:100FDA00746F20656E63727970742028617320695A
:100FEA006E7465676572293A200043697068657294
:100FFA00746578743A20256900456E7465722063B9
:10100A0069706865727465787420746F20646563AA
:10101A00727970743A2000446563727970746564F9
:0B102A002076616C75653A2025690096
:101035001216D87BFF7A0D79EA80267BFF7A0E7926
:101045001112166612150F8E228F23E523640145B2
:10105500226013E52364024522600B7BFF7A0E793B
:101065005312166680D57BFF7A0E797812166612B2
:10107500150F8E188F1912123DEC4D4E4F60087BDF
:10108500FF7A0E799180357BFF7A0E79AE1216665E
:1010950080D47BFF7A0E79E012166612150F8E1A30
:1010A5008F1B12123DEC4D4E4F600B7BFF7A0E7974
:1010B500F7121666800B7BFF7A0F7914121666807D
:1010C500D1AC1AAD1BAE18AF19120B97E48F178E62
:1010D50016F515F514E51B24FFFDE51A34FFFCE5AF
:1010E5001924FFFFE51834FFFE120B97E48F0B8ED2
:1010F5000AF509F5087BFF7A0F794812166612156D
:101105000F8F138E128D118C10850B69850A6885DA
:101115000967850866121574E47B01FAF9F8C312AC
:101125000CFC70D17BFF7A0F7965121666850B6909
:10113500850A68850967850866AF13AE12AD11ACDF
:10114500101214718F0F8E0E8D0D8C0C7565FF7539
:10115500660F75678085136B85126A851169851021
:101165006885176F85166E85156D85146C7B007AFD
:1011750000792612085C1216607565FF75660F7595
:1011850067A1850F6B850E6A850D69850C68850BD2
:101195006F850A6E85096D85086C7B007A00792656
:1011A50012085C121660E52364014522703C7BFF42
:1011B5007A0F79C81216661216157B007A007958CF
:1011C5001213C3E4FCFD85137185127085116F85BB
:1011D500106E12130C8E248F257565FF75660F75BD
:1011E50067F48524688525698040E52364024522E6
:1011F50070447BFF7A1079031216661216157B0070
:101205007A0079581213C38E248F25E4FCFD850FCF
:1012150071850E70850D6F850C6E12130C7565FF4B
:101225007566107567218E688F697B007A0079264F
:0812350012085C12166080FE35
:0C16D800758920758DFD759850D28E220A
:0816F0008F993099FDC2992287
:0816F8003098FDC298AF992261
:061660007B007A007926F0
:101666008B628A638964AB62AA63A964120B5C60AD
:10167600130564E5647002056314F9120B5CFF122E
:0916860016F080E2E4FF0216F008
:10150F00E4F565F564F563F562F5661216F88F6715
:10151F00E567640D6046E567640A6040E47F0AFE94
:10152F00FDFCAB65AA64A963A862120BDFA804A92E
:10153F0005AA06AB07E56724D0FFE434FFFE339519
:10154F00E0FDFCEB2FF565EA3EF564E93DF563E858
:10155F003CF5620566E566C3940540AFAF65AE64C2
:04156F00AD63AC625A
:011573002255
:0A1615007B007A0079587D0A7C0002
:0A161F008B628A6389648C658D6616
:10162900E4FDFCC3ED9566EC9565502A1216F88F1A
:1016390067E567640A601FE567640D6019AB62AA14
:1016490063A9640DEDAE0470010C14F5828E83E577
:0616590067120B7580CD45
:01165F002268
:0C130C008517758516748515738514729D
:081318008F6D8E6C8D6B8C6AE9
:101320007576007577018075E4FFFEFDFCAB71AA50
:1013300070A96FA86ED3120CFC50030213BBE571A9
:101340005401FFE4FEFDFC7B01FAF9F8120CFC707D
:1013500024AE76AF77FCFDAB6DAA6CA96BA86A12C0
:101360000BDFAB75AA74A973A872120C6AAE02AF38
:10137000038E768F77AF71AE70AD6FAC6E78011261
:101380000D0D8F718E708D6F8C6EAF6DAE6CAD6B01
:10139000AC6AA804A905AA06AB07120BDFAB75AAB5
:1013A00074A973A872120C6AAC00AD01AE02AF034F
:1013B0008F6D8E6C8D6B8C6A021328AE76AF77E4DE
:0213C000FCFD32
:0113C2002208
:101574008F658E648D638C62E4FFFEFDFCAB69AA0B
:0B15840068A967A866C3120CFC603069
:10158F0085686A85696BA866AF65AE64AD63AC624A
:10159F00120C6AAC00AD01AE02AF038F698E688D7D
:0E15AF00678C66E4856B65856A64F563F5629A
:0B15BD0080BDAF65AE64AD63AC622280
:06123D00E4FCFD756605EE
:081243008F658E648D638C62DF
:10124B00E47F01FEFDFCAB65AA64A963A862D3121F
:10125B000CFC50030212FDE47F03FEFDFCAB65AA00
:10126B0064A963A862D3120CFC5003021305E47F3C
:10127B0004FEFDFCAB65AA64A963A862C3120CFC57
:0E128B007002806FE4F567E567C39566506CEE
:101299001215C8EE3395E0FDFCE56524FCFBE56419
:1012A90034FFFAE56334FFF9E56234FFF8120C6A9A
:1012B900AE02EB2402F569E43EF568FEAF69E4FC91
:1012C900FDE56524FFF571E56434FFF570E56334E8
:1012D900FFF56FE56234FFF56E8565758564748584
:1012E9006373856272121318E47B01FAF9F8C31269
:0812F9000CFC6004E4FF800717
:0A1301000567808DE47F01FEFDFC0E
:01130B0022BF
:081471008F658E648D638C62AF
:1014790085686C85696D8F828E83E4FBFAF56A75E0
:101489006B01E5824583604DAE6CAF6DAD82AC8377
:10149900120BA98E6E8F6FAD82AC83120B97C3E5C9
:1014A9006D9FF56DE56C9EF56CAC6AAD6BAE6EAF7C
:1014B9006F120B97C3EB9FFBEA9EAF6DAE6C8583F2
:1014C9006C85826D8E838F82FEAF03AA6AAB6BF542
:1014D9006A8F6B80ADD3E56D9401E56C648094806F
:1014E900400774FFFFFEFDFC22C3EA64809480502C
:1014F9000AE5692BFBE5683AFA80EEAE02AF03EE26
:051509003395E0FDFC3C
:01150E0022BA
:030000000216E401
:0C16E400787FE4F6D8FD758177021035A0
:100B5C00BB010689828A83E0225002E722BBFE0297
:090B6C00E32289828A83E49322CA
:100B7500F8BB010DE58229F582E5833AF583E8F0B6
:100B8500225006E92582C8F622BBFE05E92582C862
:020B9500F2224A
:100B9700EF8DF0A4A8F0CF8CF0A428CE8DF0A42E72
:020BA700FE222C
:100BA900C2D5EC30E709B2D5E4C39DFDE49CFCEE67
:100BB90030E715B2D5E4C39FFFE49EFE120D5FC373
:100BC900E49DFDE49CFC8003120D5F30D507C3E46E
:060BD9009FFFE49EFE22D6
:100BDF00E88FF0A4CC8BF0A42CFCE98EF0A42CFCB5
:100BEF008AF0EDA42CFCEA8EF0A4CDA8F08BF0A433
:100BFF002DCC3825F0FDE98FF0A42CCD35F0FCEB92
:100C0F008EF0A4FEA9F0EB8FF0A4CFC5F02ECD3956
:0F0C1F00FEE43CFCEAA42DCE35F0FDE43CFC22C3
:100C2E0075F008758200EF2FFFEE33FECD33CDCC7D
:100C3E0033CCC58233C5829BED9AEC99E582984000
:100C4E000CF582EE9BFEED9AFDEC99FC0FD5F0D6DD
:100C5E00E4CEFBE4CDFAE4CCF9A88222B800C1B907
:100C6E000059BA002DEC8BF084CFCECDFCE5F0CB45
:100C7E00F97818EF2FFFEE33FEED33FDEC33FCEB7E
:100C8E0033FB10D703994004EB99FB0FD8E5E4F939
:100C9E00FA227818EF2FFFEE33FEED33FDEC33FC26
:100CAE00C933C910D7059BE99A4007EC9BFCE99A1A
:100CBE00F90FD8E0E4C9FAE4CCFB2275F010EF2F5F
:100CCE00FFEE33FEED33FDCC33CCC833C810D7075F
:100CDE009BEC9AE899400AED9BFDEC9AFCE899F89A
:0E0CEE000FD5F0DAE4CDFBE4CCFAE4C8F9222D
:100CFC00EB9FF5F0EA9E42F0E99D42F0E89C45F04E
:010D0C0022C4
:100D0D00E8600FECC313FCED13FDEE13FEEF13FFC4
:030D1D00D8F122E8
:10080000E5712465F8E605712278623007027865A3
:10081000E475F001120DB4020B5C2000EB7F2ED2C8
:10082000008018EF540F2490D43440D4FF30040BD0
:10083000EF24BFB41A0050032461FFE57260021573
:10084000720575E5757002057430070D7862E47500
:10085000F001120DB4EF020D4D02168F7403D20792
:100860008003E4C207F5718B628A638964E4F572E0
:10087000F574F575E57260077F2012083B80F57509
:1008800073FFC201C200C202C203C205C206C2088F
:10089000120809FF700D3007057F0012084CAF7574
:1008A000AE7422B4255FC2D5C204120809FF24D059
:1008B000B40A00501A75F00A787230D50508B6FFF0
:1008C0000106C6A426F620D5047002D20380D924DE
:1008D000CFB41A00EF5004C2E5D204020A4CD20190
:1008E00080C6D20080C0D20280BCD2D580BAD205E8
:1008F00080B47F2012083B2002077401B5720040CB
:10090000F1120800FF12083B020874D208D20680D8
:1009100095120800FB120800FA120800F94A4B7001
:1009200006791D7A0B7BFF20022EE572602A7E007D
:100930008E82758300120D2060060EEE657370F0D6
:10094000C2D5EBC0E0EAC0E0E9C0E0EE120A93D005
:10095000E0F9D0E0FAD0E0FB120B5CFF60AAEBC03C
:10096000E0EAC0E0E9C0E012083BD0E02401F9D0A1
:10097000E03400FAD0E0FBE5730460DCD573D98085
:10098000877BFF7A0A798FD202809C791080027966
:1009900008C206C2088008D2D5790A8004790AC242
:1009A000D5E573047002F573E4FAFDFEFF1208004A
:1009B000FC7B08200113120800FD7B1030000A1296
:1009C0000800FE120800FF7B20EC3382D592D55040
:1009D00013C3E43000069FFFE49EFEE42001039D64
:1009E000FDE49CFCE4CBF8C201EC700CCFCECDCC86
:1009F000E824F8F870F38017C3EF33FFEE33FEED11
:100A000033FDEC33FCEB33FB994002FB0FD8E9EBF1
:100A1000300105F8D0E0C448B201C0E00AEC4D4E08
:100A20004F78207B0070C2EAB5730040BCC0E01272
:100A30000A95D0F0D0E0200104C4C0E0C4B201C0E7
:100A4000F0120824D0F0D5F0EB020874120DC4099E
:100A50001153098B5808E24C08DE42098F4F099761
:0F0A60004409974908F743099D550981460981C3
:100A6F00450981470B3D5008E62D08EA2E090D2B4D
:100A7F0008EE23090B200B262A08A64800000905BB
:100A8F003F3F3F00790AA2D5200314300509B91062
:100A9F00020404B9080104A2D52006025001042063
:100AAF0002689202B572005034C0E07F2030031903
:100ABF007F30A20272067205500F120AECC202C2F8
:100ACF0006C205C2087F30800F300503E9C0E0126F
:100ADF00083B300503D0E0F9D0E0B572CC300517F4
:100AEF007F30B9100C12083B7F583004077F788095
:100AFF0003B9080312083B3002057F2D02083B7F24
:100B0F00202008F87F2B2006F322920280CF286E38
:100B1F00756C6C2900D2011208003001F8C20178FF
:100B2F007230D50108F60208A62D50434958120815
:100B3F00002403B405004001E4900B389312082CF5
:0D0B4F00743A12082CD20375720402098B4F
:1015C800AC1CAD1DAE1EAF1F7810EC4D4E4F700415
:1015D8007CA57DA5C3EC13FCED13FDEE13FEEF1304
:1015E800FF5010EC64CCFCED644CFDEE644EFEEF55
:1015F80064CEFFD8DF8C1C8D1D8E1E8F1FEE547F8E
:0D160800FE228E1C8F1D74A5F51EF51F22FD
:1013C3008B628A638964AB62AA63A964120B5CFFB4
:1013D3001216B6500D74012564F564E43563F563A4
:1013E30080E4D200AB62AA63A964120B5CFF642B96
:1013F3006004EFB42D1BAB620564E564AA6370025D
:10140300056314F9120B5C642D6003D38001C3924E
:1014130000E4F565F566AB62AA63A964120B5CFF91
:101423001216C95036AB62AA63A964120B5CFF3370
:1014330095E0FEEF24D0FBEE34FFFAAE65AF667C99
:10144300007D0A120B97EF2BF566EE3AF5657401F2
:101453002564F564E43563F56380BB300006AE654F
:0E146300AF668009C3E49566FFE49565FE223E
:100D2000BB010CE58229F582E5833AF583E0225088
:100D300006E92582F8E622BBFE06E92582F8E222D2
:0D0D4000E58229F582E5833AF583E49322EC
:100D4D00BB010689828A83F0225002F722BBFE0185
:020D5D00F3227F
:100D5F00BC000BBE0029EF8DF084FFADF022E4CC78
:100D6F00F875F008EF2FFFEE33FEEC33FCEE9DEC41
:100D7F00984005FCEE9DFE0FD5F0E9E4CEFD22ED87
:100D8F00F8F5F0EE8420D21CFEADF075F008EF2FD1
:100D9F00FFED33FD4007985006D5F0F222C398FDC2
:050DAF000FD5F0EA225F
:100DB400FAE6FB0808E6F925F0F618E6CA3AF62240
:100DC400D083D082F8E4937012740193700DA3A3BE
:100DD40093F8740193F5828883E4737402936860D2
:060DE400EFA3A3A380DFD2
:10168F00EFB40A07740D12169A740A309811A899BC
:10169F00B8130CC2983098FDA899C298B811F630BB
:0716AF0099FDC299F5992293
:0F16C900EFC394304007EF943A50028001C322E0
:1016B600EFC394094005EF940E4003BF2003D38087
:0316C60001C3223B
:00000001FF
